{
  "contractName": "Projects",
  "abi": [
    {
      "inputs": [],
      "payable": false,
      "stateMutability": "nonpayable",
      "type": "constructor"
    },
    {
      "constant": true,
      "inputs": [
        {
          "internalType": "address",
          "name": "",
          "type": "address"
        }
      ],
      "name": "deposits",
      "outputs": [
        {
          "internalType": "uint256",
          "name": "",
          "type": "uint256"
        }
      ],
      "payable": false,
      "stateMutability": "view",
      "type": "function"
    },
    {
      "constant": true,
      "inputs": [
        {
          "internalType": "uint256",
          "name": "",
          "type": "uint256"
        }
      ],
      "name": "project",
      "outputs": [
        {
          "internalType": "uint256",
          "name": "id",
          "type": "uint256"
        },
        {
          "internalType": "uint256",
          "name": "value",
          "type": "uint256"
        },
        {
          "internalType": "string",
          "name": "name",
          "type": "string"
        },
        {
          "internalType": "uint256",
          "name": "state",
          "type": "uint256"
        },
        {
          "internalType": "address",
          "name": "programer",
          "type": "address"
        }
      ],
      "payable": false,
      "stateMutability": "view",
      "type": "function"
    },
    {
      "constant": true,
      "inputs": [],
      "name": "projectCount",
      "outputs": [
        {
          "internalType": "uint256",
          "name": "",
          "type": "uint256"
        }
      ],
      "payable": false,
      "stateMutability": "view",
      "type": "function"
    },
    {
      "constant": false,
      "inputs": [
        {
          "internalType": "string",
          "name": "_name",
          "type": "string"
        }
      ],
      "name": "addProject",
      "outputs": [],
      "payable": true,
      "stateMutability": "payable",
      "type": "function"
    },
    {
      "constant": false,
      "inputs": [
        {
          "internalType": "uint256",
          "name": "_id",
          "type": "uint256"
        }
      ],
      "name": "takeProject",
      "outputs": [],
      "payable": false,
      "stateMutability": "nonpayable",
      "type": "function"
    },
    {
      "constant": false,
      "inputs": [
        {
          "internalType": "uint256",
          "name": "_id",
          "type": "uint256"
        }
      ],
      "name": "finishProject",
      "outputs": [],
      "payable": false,
      "stateMutability": "nonpayable",
      "type": "function"
    },
    {
      "constant": false,
      "inputs": [
        {
          "internalType": "address",
          "name": "payee",
          "type": "address"
        }
      ],
      "name": "deposit",
      "outputs": [],
      "payable": true,
      "stateMutability": "payable",
      "type": "function"
    },
    {
      "constant": false,
      "inputs": [
        {
          "internalType": "address payable",
          "name": "payee",
          "type": "address"
        }
      ],
      "name": "withdraw",
      "outputs": [],
      "payable": false,
      "stateMutability": "nonpayable",
      "type": "function"
    }
  ],
  "bytecode": "0x60806040526000805534801561001457600080fd5b5033600360006101000a81548173ffffffffffffffffffffffffffffffffffffffff021916908373ffffffffffffffffffffffffffffffffffffffff160217905550610c3b806100656000396000f3fe60806040526004361061007b5760003560e01c806394e7a32e1161004e57806394e7a32e146102b3578063e4f23e61146102ee578063f340fa0114610329578063fc7e286d1461036d5761007b565b80630ed047d41461008057806311d5aaa71461013b57806336fbad261461023757806351cff8d914610262575b600080fd5b6101396004803603602081101561009657600080fd5b81019080803590602001906401000000008111156100b357600080fd5b8201836020820111156100c557600080fd5b803590602001918460018302840111640100000000831117156100e757600080fd5b91908080601f016020809104026020016040519081016040528093929190818152602001838380828437600081840152601f19601f8201169050808301925050505050505091929192905050506103d2565b005b34801561014757600080fd5b506101746004803603602081101561015e57600080fd5b810190808035906020019092919050505061057a565b60405180868152602001858152602001806020018481526020018373ffffffffffffffffffffffffffffffffffffffff1673ffffffffffffffffffffffffffffffffffffffff168152602001828103825285818151815260200191508051906020019080838360005b838110156101f85780820151818401526020810190506101dd565b50505050905090810190601f1680156102255780820380516001836020036101000a031916815260200191505b50965050505050505060405180910390f35b34801561024357600080fd5b5061024c610668565b6040518082815260200191505060405180910390f35b34801561026e57600080fd5b506102b16004803603602081101561028557600080fd5b81019080803573ffffffffffffffffffffffffffffffffffffffff16906020019092919050505061066e565b005b3480156102bf57600080fd5b506102ec600480360360208110156102d657600080fd5b810190808035906020019092919050505061079c565b005b3480156102fa57600080fd5b506103276004803603602081101561031157600080fd5b810190808035906020019092919050505061089b565b005b61036b6004803603602081101561033f57600080fd5b81019080803573ffffffffffffffffffffffffffffffffffffffff169060200190929190505050610a2e565b005b34801561037957600080fd5b506103bc6004803603602081101561039057600080fd5b81019080803573ffffffffffffffffffffffffffffffffffffffff169060200190929190505050610b16565b6040518082815260200191505060405180910390f35b6103da610b2e565b6040518060a00160405280600054815260200134815260200182815260200160008152602001600073ffffffffffffffffffffffffffffffffffffffff1681525060016000805481526020019081526020016000206000820151816000015560208201518160010155604082015181600201908051906020019061045f929190610b40565b506060820151816003015560808201518160040160006101000a81548173ffffffffffffffffffffffffffffffffffffffff021916908373ffffffffffffffffffffffffffffffffffffffff1602179055509050506103e8341161050e576040517f08c379a0000000000000000000000000000000000000000000000000000000008152600401808060200182810382526021815260200180610be66021913960400191505060405180910390fd5b600360009054906101000a900473ffffffffffffffffffffffffffffffffffffffff1673ffffffffffffffffffffffffffffffffffffffff166108fc349081150290604051600060405180830381858888f19350505050158015610576573d6000803e3d6000fd5b5050565b6001602052806000526040600020600091509050806000015490806001015490806002018054600181600116156101000203166002900480601f0160208091040260200160405190810160405280929190818152602001828054600181600116156101000203166002900480156106325780601f1061060757610100808354040283529160200191610632565b820191906000526020600020905b81548152906001019060200180831161061557829003601f168201915b5050505050908060030154908060040160009054906101000a900473ffffffffffffffffffffffffffffffffffffffff16905085565b60005481565b600360009054906101000a900473ffffffffffffffffffffffffffffffffffffffff1673ffffffffffffffffffffffffffffffffffffffff163373ffffffffffffffffffffffffffffffffffffffff16146106c857600080fd5b6000600260008373ffffffffffffffffffffffffffffffffffffffff1673ffffffffffffffffffffffffffffffffffffffff1681526020019081526020016000205490506000600260008473ffffffffffffffffffffffffffffffffffffffff1673ffffffffffffffffffffffffffffffffffffffff168152602001908152602001600020819055508173ffffffffffffffffffffffffffffffffffffffff166108fc829081150290604051600060405180830381858888f19350505050158015610797573d6000803e3d6000fd5b505050565b6001806000838152602001908152602001600020600301541415610828576040517f08c379a000000000000000000000000000000000000000000000000000000000815260040180806020018281038252601c8152602001807f5468652070726f6a65637420697320616c72656164792074616b656e0000000081525060200191505060405180910390fd5b336001600083815260200190815260200160002060040160006101000a81548173ffffffffffffffffffffffffffffffffffffffff021916908373ffffffffffffffffffffffffffffffffffffffff16021790555060018060008381526020019081526020016000206003018190555050565b600360009054906101000a900473ffffffffffffffffffffffffffffffffffffffff1673ffffffffffffffffffffffffffffffffffffffff163373ffffffffffffffffffffffffffffffffffffffff16146108f557600080fd5b600060016000838152602001908152602001600020600301541415610982576040517f08c379a00000000000000000000000000000000000000000000000000000000081526004018080602001828103825260188152602001807f5468652070726f6a656374206973206e6f742074616b656e000000000000000081525060200191505060405180910390fd5b600260016000838152602001908152602001600020600301541415610a0f576040517f08c379a000000000000000000000000000000000000000000000000000000000815260040180806020018281038252601f8152602001807f5468652070726f6a65637420697320616c72656164792066696e69736865640081525060200191505060405180910390fd5b6002600160008381526020019081526020016000206003018190555050565b600360009054906101000a900473ffffffffffffffffffffffffffffffffffffffff1673ffffffffffffffffffffffffffffffffffffffff163373ffffffffffffffffffffffffffffffffffffffff1614610a8857600080fd5b600034905080600260008473ffffffffffffffffffffffffffffffffffffffff1673ffffffffffffffffffffffffffffffffffffffff1681526020019081526020016000205401600260008473ffffffffffffffffffffffffffffffffffffffff1673ffffffffffffffffffffffffffffffffffffffff168152602001908152602001600020819055505050565b60026020528060005260406000206000915090505481565b60016000808282540192505081905550565b828054600181600116156101000203166002900490600052602060002090601f016020900481019282601f10610b8157805160ff1916838001178555610baf565b82800160010185558215610baf579182015b82811115610bae578251825591602001919060010190610b93565b5b509050610bbc9190610bc0565b5090565b610be291905b80821115610bde576000816000905550600101610bc6565b5090565b9056fe54686520616d6f756e74206f662077656920697320696e73756666696369656e74a265627a7a723158203e758987583c32b9fca7226086fc23bc19d778a93a25589ae71d1aa7daadab6964736f6c63430005100032",
  "source": "pragma solidity ^0.5.0;\n\ncontract Projects {\n\n    uint256 public projectCount = 0;\n    mapping(uint => Project) public project;\n    mapping(address => uint256) public deposits;\n\n    address payable owner;\n\n     constructor () public {\n        owner = msg.sender;\n    }\n\n    modifier onlyOwner(){ // only the owner of the contract can call those methods\n        require(msg.sender == owner);\n        _;\n    }\n\n    function incrementCount() internal {\n        projectCount += 1;\n    }\n\n    struct Project {\n        uint id;\n        uint value; //amount of wei it pays\n        string name;\n        uint state; //0 is untaken, 1 is taken, 2 is finished\n        address programer; // the person working on the project\n    }\n\n    function addProject(string memory _name) payable public {\n        incrementCount(); // increment the number of projects\n        project[projectCount] = Project(projectCount,msg.value,_name,0,address(0)); // initialise the project\n        require(msg.value > 1000,\"The amount of wei is insufficient\");// amount must be al least 1000 wei (200 euro as of 5/11/2021)\n        owner.transfer(msg.value);\n\n    }\n\n    function takeProject(uint _id) public { // method should be called when a programmer decides to work on the project given as parameter\n\n        require(project[_id].state != 1,\"The project is already taken\");\n        project[_id].programer = msg.sender;\n        project[_id].state = 1;\n\n    } \n\n    function finishProject(uint _id) public onlyOwner { // method should be  called when the project is considered finished and it sets it's state to finished\n        require(project[_id].state != 0, \"The project is not taken\");\n        require(project[_id].state != 2, \"The project is already finished\");\n        project[_id].state = 2;\n\n    }\n\n\n    function deposit(address payee) public onlyOwner payable { // deposits any sent amount of ether to the payee adress\n        uint256 amount = msg.value;\n        deposits[payee] = deposits[payee] + amount;\n\n    }\n\n    function withdraw(address payable payee) public onlyOwner { // withdraws all the ether stored in the deposits\n        uint256 payment = deposits[payee];\n        deposits[payee] = 0;\n        payee.transfer(payment);\n\n    }\n\n\n\n} ",
  "sourcePath": "/home/bogdan/Documents/Projects/blockchain-project/contracts/Projects.sol",
  "compiler": {
    "name": "solc",
    "version": "0.5.16+commit.9c3226ce.Emscripten.clang"
  },
  "schemaVersion": "3.3.4",
  "updatedAt": "2021-05-11T21:50:52.914Z",
  "networkType": "ethereum",
  "devdoc": {
    "methods": {}
  },
  "userdoc": {
    "methods": {}
  }
}