{
  "contractName": "Projects",
  "abi": [
    {
      "inputs": [],
      "payable": false,
      "stateMutability": "nonpayable",
      "type": "constructor"
    },
    {
      "constant": true,
      "inputs": [
        {
          "internalType": "uint256",
          "name": "",
          "type": "uint256"
        }
      ],
      "name": "project",
      "outputs": [
        {
          "internalType": "uint256",
          "name": "id",
          "type": "uint256"
        },
        {
          "internalType": "uint256",
          "name": "value",
          "type": "uint256"
        },
        {
          "internalType": "string",
          "name": "name",
          "type": "string"
        },
        {
          "internalType": "uint256",
          "name": "state",
          "type": "uint256"
        },
        {
          "internalType": "address",
          "name": "programer",
          "type": "address"
        }
      ],
      "payable": false,
      "stateMutability": "view",
      "type": "function"
    },
    {
      "constant": true,
      "inputs": [],
      "name": "projectCount",
      "outputs": [
        {
          "internalType": "uint256",
          "name": "",
          "type": "uint256"
        }
      ],
      "payable": false,
      "stateMutability": "view",
      "type": "function"
    },
    {
      "constant": true,
      "inputs": [],
      "name": "getBalance",
      "outputs": [
        {
          "internalType": "uint256",
          "name": "",
          "type": "uint256"
        }
      ],
      "payable": false,
      "stateMutability": "view",
      "type": "function"
    },
    {
      "constant": false,
      "inputs": [
        {
          "internalType": "uint256",
          "name": "_value",
          "type": "uint256"
        },
        {
          "internalType": "string",
          "name": "_name",
          "type": "string"
        }
      ],
      "name": "addProject",
      "outputs": [],
      "payable": true,
      "stateMutability": "payable",
      "type": "function"
    },
    {
      "constant": false,
      "inputs": [
        {
          "internalType": "uint256",
          "name": "_id",
          "type": "uint256"
        }
      ],
      "name": "takeProject",
      "outputs": [],
      "payable": false,
      "stateMutability": "nonpayable",
      "type": "function"
    }
  ],
  "bytecode": "0x60806040526000805534801561001457600080fd5b5033600260006101000a81548173ffffffffffffffffffffffffffffffffffffffff021916908373ffffffffffffffffffffffffffffffffffffffff16021790555061079b806100656000396000f3fe60806040526004361061004a5760003560e01c806311d5aaa71461004f57806312065fe01461014b57806336fbad261461017657806355a027a1146101a157806394e7a32e14610266575b600080fd5b34801561005b57600080fd5b506100886004803603602081101561007257600080fd5b81019080803590602001909291905050506102a1565b60405180868152602001858152602001806020018481526020018373ffffffffffffffffffffffffffffffffffffffff1673ffffffffffffffffffffffffffffffffffffffff168152602001828103825285818151815260200191508051906020019080838360005b8381101561010c5780820151818401526020810190506100f1565b50505050905090810190601f1680156101395780820380516001836020036101000a031916815260200191505b50965050505050505060405180910390f35b34801561015757600080fd5b5061016061038f565b6040518082815260200191505060405180910390f35b34801561018257600080fd5b5061018b6103d0565b6040518082815260200191505060405180910390f35b610264600480360360408110156101b757600080fd5b8101908080359060200190929190803590602001906401000000008111156101de57600080fd5b8201836020820111156101f057600080fd5b8035906020019184600183028401116401000000008311171561021257600080fd5b91908080601f016020809104026020016040519081016040528093929190818152602001838380828437600081840152601f19601f8201169050808301925050505050505091929192905050506103d6565b005b34801561027257600080fd5b5061029f6004803603602081101561028957600080fd5b810190808035906020019092919050505061058d565b005b6001602052806000526040600020600091509050806000015490806001015490806002018054600181600116156101000203166002900480601f0160208091040260200160405190810160405280929190818152602001828054600181600116156101000203166002900480156103595780601f1061032e57610100808354040283529160200191610359565b820191906000526020600020905b81548152906001019060200180831161033c57829003601f168201915b5050505050908060030154908060040160009054906101000a900473ffffffffffffffffffffffffffffffffffffffff16905085565b6000600260009054906101000a900473ffffffffffffffffffffffffffffffffffffffff1673ffffffffffffffffffffffffffffffffffffffff1631905090565b60005481565b6103de61068c565b6040518060a00160405280600054815260200183815260200182815260200160008152602001600073ffffffffffffffffffffffffffffffffffffffff1681525060016000805481526020019081526020016000206000820151816000015560208201518160010155604082015181600201908051906020019061046392919061069e565b506060820151816003015560808201518160040160006101000a81548173ffffffffffffffffffffffffffffffffffffffff021916908373ffffffffffffffffffffffffffffffffffffffff1602179055509050506000670de0b6b3a76400008302905034811461051f576040517f08c379a00000000000000000000000000000000000000000000000000000000081526004018080602001828103825260238152602001806107446023913960400191505060405180910390fd5b600260009054906101000a900473ffffffffffffffffffffffffffffffffffffffff1673ffffffffffffffffffffffffffffffffffffffff166108fc349081150290604051600060405180830381858888f19350505050158015610587573d6000803e3d6000fd5b50505050565b6001806000838152602001908152602001600020600301541415610619576040517f08c379a000000000000000000000000000000000000000000000000000000000815260040180806020018281038252601c8152602001807f5468652070726f6a65637420697320616c72656164792074616b656e0000000081525060200191505060405180910390fd5b336001600083815260200190815260200160002060040160006101000a81548173ffffffffffffffffffffffffffffffffffffffff021916908373ffffffffffffffffffffffffffffffffffffffff16021790555060018060008381526020019081526020016000206003018190555050565b60016000808282540192505081905550565b828054600181600116156101000203166002900490600052602060002090601f016020900481019282601f106106df57805160ff191683800117855561070d565b8280016001018555821561070d579182015b8281111561070c5782518255916020019190600101906106f1565b5b50905061071a919061071e565b5090565b61074091905b8082111561073c576000816000905550600101610724565b5090565b9056fe54686520616d6f756e74206f6620657468657220697320696e73756666696369656e74a265627a7a723158200f1b9ddef6340feb54534ea5bd8628b3e6be86c5687cc2dfd953170d62b3bc5c64736f6c63430005100032",
  "source": "pragma solidity ^0.5.0;\n\ncontract Projects {\n    \n    uint256 public projectCount = 0;\n    mapping(uint => Project) public project;\n    \n    address payable owner;\n    \n     constructor () public {\n        owner = msg.sender;\n    }\n    \n    modifier onlyOwner(){\n        require(msg.sender == owner);\n        _;\n    }\n    \n    function getBalance() public view returns (uint){\n        return owner.balance;\n    }\n    \n    function incrementCount() internal {\n        projectCount += 1;\n    }\n    \n    struct Project {\n        uint id;\n        uint value; //amount of ether it pays\n        string name;\n        uint state; //0 is untaken, 1 is taken\n        address programer; // the person working on the project\n    }\n    \n    function addProject(uint _value, string memory _name) payable public {\n        incrementCount();\n        project[projectCount] = Project(projectCount,_value,_name,0,address(0));\n        \n        uint amount = _value * (1 ether);\n        require(amount==msg.value,\"The amount of ether is insufficient\");\n        owner.transfer(msg.value);\n        \n    }\n \n    function takeProject(uint _id) public {\n        \n        require(project[_id].state != 1,\"The project is already taken\");\n        project[_id].programer = msg.sender;\n        project[_id].state = 1;\n        \n    } \n        \n    \n}",
  "sourcePath": "/home/bogdan/Documents/Projects/blockchain-project/contracts/Projects.sol",
  "compiler": {
    "name": "solc",
    "version": "0.5.16+commit.9c3226ce.Emscripten.clang"
  },
  "schemaVersion": "3.3.4",
  "updatedAt": "2021-05-10T14:17:26.766Z",
  "networkType": "ethereum",
  "devdoc": {
    "methods": {}
  },
  "userdoc": {
    "methods": {}
  }
}